{
  "contractName": "ScalableRng",
  "abi": [
    {
      "inputs": [],
      "stateMutability": "nonpayable",
      "type": "constructor"
    },
    {
      "anonymous": false,
      "inputs": [
        {
          "indexed": true,
          "internalType": "uint256",
          "name": "index",
          "type": "uint256"
        },
        {
          "indexed": false,
          "internalType": "uint256",
          "name": "result",
          "type": "uint256"
        }
      ],
      "name": "ReceivedRandomness",
      "type": "event"
    },
    {
      "anonymous": false,
      "inputs": [
        {
          "indexed": true,
          "internalType": "uint256",
          "name": "index",
          "type": "uint256"
        }
      ],
      "name": "RequestedRandomness",
      "type": "event"
    },
    {
      "inputs": [],
      "name": "TIME_BETWEEN_NUMBERS",
      "outputs": [
        {
          "internalType": "uint256",
          "name": "",
          "type": "uint256"
        }
      ],
      "stateMutability": "view",
      "type": "function",
      "constant": true
    },
    {
      "inputs": [
        {
          "internalType": "bytes32",
          "name": "requestId",
          "type": "bytes32"
        },
        {
          "internalType": "uint256",
          "name": "randomness",
          "type": "uint256"
        }
      ],
      "name": "rawFulfillRandomness",
      "outputs": [],
      "stateMutability": "nonpayable",
      "type": "function"
    },
    {
      "inputs": [],
      "name": "s_lastRequestTime",
      "outputs": [
        {
          "internalType": "uint256",
          "name": "",
          "type": "uint256"
        }
      ],
      "stateMutability": "view",
      "type": "function",
      "constant": true
    },
    {
      "inputs": [
        {
          "internalType": "uint256",
          "name": "",
          "type": "uint256"
        }
      ],
      "name": "s_rngs",
      "outputs": [
        {
          "internalType": "uint256",
          "name": "",
          "type": "uint256"
        }
      ],
      "stateMutability": "view",
      "type": "function",
      "constant": true
    },
    {
      "inputs": [],
      "name": "getLinkBalance",
      "outputs": [
        {
          "internalType": "uint256",
          "name": "",
          "type": "uint256"
        }
      ],
      "stateMutability": "view",
      "type": "function",
      "constant": true
    },
    {
      "inputs": [],
      "name": "requestNextGlobalRng",
      "outputs": [],
      "stateMutability": "nonpayable",
      "type": "function"
    },
    {
      "inputs": [
        {
          "internalType": "bytes",
          "name": "",
          "type": "bytes"
        }
      ],
      "name": "checkUpkeep",
      "outputs": [
        {
          "internalType": "bool",
          "name": "",
          "type": "bool"
        },
        {
          "internalType": "bytes",
          "name": "",
          "type": "bytes"
        }
      ],
      "stateMutability": "nonpayable",
      "type": "function"
    },
    {
      "inputs": [
        {
          "internalType": "bytes",
          "name": "",
          "type": "bytes"
        }
      ],
      "name": "performUpkeep",
      "outputs": [],
      "stateMutability": "nonpayable",
      "type": "function"
    },
    {
      "inputs": [],
      "name": "commitToNextRng",
      "outputs": [
        {
          "internalType": "uint256",
          "name": "index",
          "type": "uint256"
        }
      ],
      "stateMutability": "view",
      "type": "function",
      "constant": true
    },
    {
      "inputs": [
        {
          "internalType": "uint256",
          "name": "index",
          "type": "uint256"
        }
      ],
      "name": "tryRetrieveRng",
      "outputs": [
        {
          "internalType": "bool",
          "name": "retrieveSuccess",
          "type": "bool"
        },
        {
          "internalType": "uint256",
          "name": "rng",
          "type": "uint256"
        }
      ],
      "stateMutability": "view",
      "type": "function",
      "constant": true
    }
  ],
  "bytecode": "0x60e0604052601e60c09081525034801561001857600080fd5b50738c7382f9d8f56b33781fe506e897a4f1e2d1725573326c977e6efc84e512bb9c30f76e30c160ed06fb8173ffffffffffffffffffffffffffffffffffffffff1660a08173ffffffffffffffffffffffffffffffffffffffff1660601b815250508073ffffffffffffffffffffffffffffffffffffffff1660808173ffffffffffffffffffffffffffffffffffffffff1660601b8152505050507f6e75b569a01ef56d18cab6a8e71e6600d6ce853834d4a5748b720d06f878b3a460001b60018190555065b5e620f4800060028190555060805160601c60a05160601c60c051610ea561013a600039806105dc52806107c852806109325250806106f95280610ae25250806103d852806104a652806107fc5280610aa65250610ea56000f3fe608060405234801561001057600080fd5b506004361061009e5760003560e01c80636e04ff0d116100665780636e04ff0d146101e557806394985ddd146102e0578063ac7475e314610318578063b924e51514610336578063e8217372146103545761009e565b80630c56d7b7146100a35780631cdc60a0146100ee5780632c2c8fa5146101305780634585e33b1461014e57806350c5f975146101c7575b600080fd5b6100cf600480360360208110156100b957600080fd5b810190808035906020019092919050505061035e565b6040518083151581526020018281526020019250505060405180910390f35b61011a6004803603602081101561010457600080fd5b810190808035906020019092919050505061039e565b6040518082815260200191505060405180910390f35b6101386103c2565b6040518082815260200191505060405180910390f35b6101c56004803603602081101561016457600080fd5b810190808035906020019064010000000081111561018157600080fd5b82018360208201111561019357600080fd5b803590602001918460018302840111640100000000831117156101b557600080fd5b90919293919293905050506103c8565b005b6101cf6103d4565b6040518082815260200191505060405180910390f35b61025c600480360360208110156101fb57600080fd5b810190808035906020019064010000000081111561021857600080fd5b82018360208201111561022a57600080fd5b8035906020019184600183028401116401000000008311171561024c57600080fd5b909192939192939050505061049d565b60405180831515815260200180602001828103825283818151815260200191508051906020019080838360005b838110156102a4578082015181840152602081019050610289565b50505050905090810190601f1680156102d15780820380516001836020036101000a031916815260200191505b50935050505060405180910390f35b610316600480360360408110156102f657600080fd5b8101908080359060200190929190803590602001909291905050506106f7565b005b6103206107c6565b6040518082815260200191505060405180910390f35b61033e6107ea565b6040518082815260200191505060405180910390f35b61035c6107f7565b005b600080826005805490501161037a576000905060009150610399565b6005838154811061038757fe5b90600052602060002001549050600191505b915091565b600581815481106103ae57600080fd5b906000526020600020016000915090505481565b60045481565b6103d06107f7565b5050565b60007f000000000000000000000000000000000000000000000000000000000000000073ffffffffffffffffffffffffffffffffffffffff166370a08231306040518263ffffffff1660e01b8152600401808273ffffffffffffffffffffffffffffffffffffffff16815260200191505060206040518083038186803b15801561045d57600080fd5b505afa158015610471573d6000803e3d6000fd5b505050506040513d602081101561048757600080fd5b8101908080519060200190929190505050905090565b600060606002547f000000000000000000000000000000000000000000000000000000000000000073ffffffffffffffffffffffffffffffffffffffff166370a08231306040518263ffffffff1660e01b8152600401808273ffffffffffffffffffffffffffffffffffffffff16815260200191505060206040518083038186803b15801561052b57600080fd5b505afa15801561053f573d6000803e3d6000fd5b505050506040513d602081101561055557600080fd5b810190808051906020019092919050505010156105da576040517f08c379a000000000000000000000000000000000000000000000000000000000815260040180806020018281038252601a8152602001807f4e6f7420656e6f756768204c494e4b20746f207061792066656500000000000081525060200191505060405180910390fd5b7f000000000000000000000000000000000000000000000000000000000000000060045442031015610657576040517f08c379a000000000000000000000000000000000000000000000000000000000815260040180806020018281038252602b815260200180610e45602b913960400191505060405180910390fd5b600360009054906101000a900460ff16156106da576040517f08c379a00000000000000000000000000000000000000000000000000000000081526004018080602001828103825260188152602001807f5265717565737420616c726561647920756e646572776179000000000000000081525060200191505060405180910390fd5b600160405180602001604052806000815250915091509250929050565b7f000000000000000000000000000000000000000000000000000000000000000073ffffffffffffffffffffffffffffffffffffffff163373ffffffffffffffffffffffffffffffffffffffff16146107b8576040517f08c379a000000000000000000000000000000000000000000000000000000000815260040180806020018281038252601f8152602001807f4f6e6c7920565246436f6f7264696e61746f722063616e2066756c66696c6c0081525060200191505060405180910390fd5b6107c28282610a95565b5050565b7f000000000000000000000000000000000000000000000000000000000000000081565b6000600580549050905090565b6002547f000000000000000000000000000000000000000000000000000000000000000073ffffffffffffffffffffffffffffffffffffffff166370a08231306040518263ffffffff1660e01b8152600401808273ffffffffffffffffffffffffffffffffffffffff16815260200191505060206040518083038186803b15801561088157600080fd5b505afa158015610895573d6000803e3d6000fd5b505050506040513d60208110156108ab57600080fd5b81019080805190602001909291905050501015610930576040517f08c379a000000000000000000000000000000000000000000000000000000000815260040180806020018281038252601a8152602001807f4e6f7420656e6f756768204c494e4b20746f207061792066656500000000000081525060200191505060405180910390fd5b7f0000000000000000000000000000000000000000000000000000000000000000600454420310156109ad576040517f08c379a000000000000000000000000000000000000000000000000000000000815260040180806020018281038252602b815260200180610e45602b913960400191505060405180910390fd5b600360009054906101000a900460ff1615610a30576040517f08c379a00000000000000000000000000000000000000000000000000000000081526004018080602001828103825260188152602001807f5265717565737420616c726561647920756e646572776179000000000000000081525060200191505060405180910390fd5b426004819055506001600360006101000a81548160ff021916908315150217905550610a60600154600254610aa2565b506005805490507f5d7d0431c4991fcc9f63f03ad0ead4128b866a8ed115a818b6d87a3afedb726460405160405180910390a2565b610a9e81610c98565b5050565b60007f000000000000000000000000000000000000000000000000000000000000000073ffffffffffffffffffffffffffffffffffffffff16634000aea07f00000000000000000000000000000000000000000000000000000000000000008486600060405160200180838152602001828152602001925050506040516020818303038152906040526040518463ffffffff1660e01b8152600401808473ffffffffffffffffffffffffffffffffffffffff16815260200183815260200180602001828103825283818151815260200191508051906020019080838360005b83811015610b9c578082015181840152602081019050610b81565b50505050905090810190601f168015610bc95780820380516001836020036101000a031916815260200191505b50945050505050602060405180830381600087803b158015610bea57600080fd5b505af1158015610bfe573d6000803e3d6000fd5b505050506040513d6020811015610c1457600080fd5b8101908080519060200190929190505050506000610c478460003060008089815260200190815260200160002054610d1f565b9050610c6f600160008087815260200190815260200160002054610d8390919063ffffffff16565b60008086815260200190815260200160002081905550610c8f8482610e0b565b91505092915050565b60058190806001815401808255809150506001900390600052602060002001600090919091909150556001600580549050037f5874d02d7f639d7b50653c68ba5bfdd3669993f00f8571e5ae038fbe37b616d8826040518082815260200191505060405180910390a26000600360006101000a81548160ff02191690831515021790555050565b600084848484604051602001808581526020018481526020018373ffffffffffffffffffffffffffffffffffffffff1681526020018281526020019450505050506040516020818303038152906040528051906020012060001c9050949350505050565b600080828401905083811015610e01576040517f08c379a000000000000000000000000000000000000000000000000000000000815260040180806020018281038252601b8152602001807f536166654d6174683a206164646974696f6e206f766572666c6f77000000000081525060200191505060405180910390fd5b8091505092915050565b6000828260405160200180838152602001828152602001925050506040516020818303038152906040528051906020012090509291505056fe4e6f7420656e6f7567682074696d652068617320706173736564206265747765656e207265717565737473a2646970667358221220314ccaf609c108d324e0423f6d617a47c142f6de1c04996cf38498552fe8aff164736f6c63430007060033",
  "immutableReferences": {
    "113": [
      {
        "length": 32,
        "start": 984
      },
      {
        "length": 32,
        "start": 1190
      },
      {
        "length": 32,
        "start": 2044
      },
      {
        "length": 32,
        "start": 2726
      }
    ],
    "115": [
      {
        "length": 32,
        "start": 1785
      },
      {
        "length": 32,
        "start": 2786
      }
    ],
    "515": [
      {
        "length": 32,
        "start": 1500
      },
      {
        "length": 32,
        "start": 1992
      },
      {
        "length": 32,
        "start": 2354
      }
    ]
  },
  "source": "// SPDX-License-Identifier: MIT\npragma solidity ^0.7.0;\n\nimport \"@chainlink/contracts/src/v0.7/VRFConsumerBase.sol\";\n\n// KeeperCompatible.sol imports the functions from both ./KeeperBase.sol and\n// ./interfaces/KeeperCompatibleInterface.sol\nimport \"@chainlink/contracts/src/v0.7/KeeperCompatible.sol\";\n\ncontract ScalableRng is VRFConsumerBase, KeeperCompatibleInterface {\n    // variables\n    bytes32 private s_keyHash;\n    uint256 private s_fee;\n    uint256 public immutable TIME_BETWEEN_NUMBERS = 30 seconds;\n\n    bool private s_isRequesting;\n    uint256 public s_lastRequestTime;\n    uint256[] public s_rngs;\n\n    event RequestedRandomness(uint256 indexed index);\n    event ReceivedRandomness(uint256 indexed index, uint256 result);\n\n    // constructor\n    // all these values are for Mumbai Testnet on Polygon\n    constructor()\n        VRFConsumerBase(0x8C7382F9D8f56b33781fE506E897a4F1e2d17255, 0x326C977E6efc84E512bB9C30f76E30c160eD06FB)\n    {\n        s_keyHash = 0x6e75b569a01ef56d18cab6a8e71e6600d6ce853834d4a5748b720d06f878b3a4;\n        s_fee = 0.0002 * 10 ** 18;\n    }\n\n    modifier readyForNewRequest() {\n        require(LINK.balanceOf(address(this)) >= s_fee, \"Not enough LINK to pay fee\");\n        require(block.timestamp - s_lastRequestTime >= TIME_BETWEEN_NUMBERS, \"Not enough time has passed between requests\");\n        require(!s_isRequesting, \"Request already underway\");\n        _;\n    }\n\n    function getLinkBalance() public view returns (uint256) {\n        return LINK.balanceOf(address(this));\n    }\n\n    function requestNextGlobalRng() public readyForNewRequest {\n        s_lastRequestTime = block.timestamp;\n        s_isRequesting = true;\n        requestRandomness(s_keyHash, s_fee);\n        emit RequestedRandomness(s_rngs.length);\n    }\n\n    function setNextGlobalRng(uint256 randomness) private {\n        s_rngs.push(randomness);\n        emit ReceivedRandomness(s_rngs.length - 1, randomness);\n        s_isRequesting = false;\n    }\n\n    function fulfillRandomness(bytes32 /*requestId*/, uint256 randomness) internal override {\n        setNextGlobalRng(randomness);\n    }\n\n    function checkUpkeep(bytes calldata /* checkData */) external override readyForNewRequest returns (bool, bytes memory)  {\n        return (true, bytes(\"\"));\n    }\n\n    function performUpkeep(bytes calldata /* performData */) external override {\n        requestNextGlobalRng();\n    }\n\n    function commitToNextRng() public view returns (uint256 index) {\n        index = s_rngs.length;\n    }\n\n    function tryRetrieveRng(uint256 index) public view returns (bool retrieveSuccess, uint256 rng) {\n        if (s_rngs.length <= index) {\n            rng = 0;\n            retrieveSuccess = false;\n        }\n        else\n        {\n            rng = s_rngs[index];\n            retrieveSuccess = true;\n        }\n    }\n}",
  "sourcePath": "/Users/rudy/chainlink_hackathon/Truffle/contracts/ScalableRng.sol",
  "compiler": {
    "name": "solc",
    "version": "0.7.6+commit.7338295f.Emscripten.clang"
  },
  "schemaVersion": "3.4.3",
  "updatedAt": "2021-11-27T21:51:28.076Z",
  "networkType": "ethereum",
  "devdoc": {
    "kind": "dev",
    "methods": {},
    "version": 1
  },
  "userdoc": {
    "kind": "user",
    "methods": {},
    "version": 1
  }
}